{"abi":[{"type":"function","name":"balances","inputs":[{"name":"","type":"address","internalType":"address"}],"outputs":[{"name":"","type":"uint256","internalType":"uint256"}],"stateMutability":"view"},{"type":"function","name":"compound","inputs":[],"outputs":[],"stateMutability":"nonpayable"},{"type":"function","name":"deposit","inputs":[],"outputs":[],"stateMutability":"payable"},{"type":"function","name":"getBalance","inputs":[],"outputs":[{"name":"","type":"uint256","internalType":"uint256"}],"stateMutability":"view"},{"type":"function","name":"withdraw","inputs":[{"name":"amount","type":"uint256","internalType":"uint256"}],"outputs":[],"stateMutability":"nonpayable"},{"type":"event","name":"Deposit","inputs":[{"name":"user","type":"address","indexed":true,"internalType":"address"},{"name":"amount","type":"uint256","indexed":false,"internalType":"uint256"}],"anonymous":false},{"type":"event","name":"Withdraw","inputs":[{"name":"user","type":"address","indexed":true,"internalType":"address"},{"name":"amount","type":"uint256","indexed":false,"internalType":"uint256"}],"anonymous":false},{"type":"event","name":"YieldCompounded","inputs":[{"name":"amount","type":"uint256","indexed":false,"internalType":"uint256"}],"anonymous":false}],"bytecode":{"object":"0x6080604052348015600e575f5ffd5b506105a78061001c5f395ff3fe608060405260043610610049575f3560e01c806312065fe01461004d57806327e235e3146100775780632e1a7d4d146100b3578063d0e30db0146100db578063f69e2046146100e5575b5f5ffd5b348015610058575f5ffd5b506100616100fb565b60405161006e919061036f565b60405180910390f35b348015610082575f5ffd5b5061009d600480360381019061009891906103e6565b610102565b6040516100aa919061036f565b60405180910390f35b3480156100be575f5ffd5b506100d960048036038101906100d4919061043b565b610116565b005b6100e361027c565b005b3480156100f0575f5ffd5b506100f961031e565b005b5f47905090565b5f602052805f5260405f205f915090505481565b805f5f3373ffffffffffffffffffffffffffffffffffffffff1673ffffffffffffffffffffffffffffffffffffffff1681526020019081526020015f20541015610195576040517f08c379a000000000000000000000000000000000000000000000000000000000815260040161018c906104c0565b60405180910390fd5b805f5f3373ffffffffffffffffffffffffffffffffffffffff1673ffffffffffffffffffffffffffffffffffffffff1681526020019081526020015f205f8282546101e0919061050b565b925050819055503373ffffffffffffffffffffffffffffffffffffffff166108fc8290811502906040515f60405180830381858888f1935050505015801561022a573d5f5f3e3d5ffd5b503373ffffffffffffffffffffffffffffffffffffffff167f884edad9ce6fa2440d8a54cc123490eb96d2768479d49ff9c7366125a942436482604051610271919061036f565b60405180910390a250565b345f5f3373ffffffffffffffffffffffffffffffffffffffff1673ffffffffffffffffffffffffffffffffffffffff1681526020019081526020015f205f8282546102c7919061053e565b925050819055503373ffffffffffffffffffffffffffffffffffffffff167fe1fffcc4923d04b559f4d29a8bfc6cda04eb5b0d3c460751c2402c5c5cc9109c34604051610314919061036f565b60405180910390a2565b7fcfad015a1c9077dd207d62466bb2fe714162b7bda0cca54bb619a967837102ae4260405161034d919061036f565b60405180910390a1565b5f819050919050565b61036981610357565b82525050565b5f6020820190506103825f830184610360565b92915050565b5f5ffd5b5f73ffffffffffffffffffffffffffffffffffffffff82169050919050565b5f6103b58261038c565b9050919050565b6103c5816103ab565b81146103cf575f5ffd5b50565b5f813590506103e0816103bc565b92915050565b5f602082840312156103fb576103fa610388565b5b5f610408848285016103d2565b91505092915050565b61041a81610357565b8114610424575f5ffd5b50565b5f8135905061043581610411565b92915050565b5f602082840312156104505761044f610388565b5b5f61045d84828501610427565b91505092915050565b5f82825260208201905092915050565b7f496e73756666696369656e742062616c616e63650000000000000000000000005f82015250565b5f6104aa601483610466565b91506104b582610476565b602082019050919050565b5f6020820190508181035f8301526104d78161049e565b9050919050565b7f4e487b71000000000000000000000000000000000000000000000000000000005f52601160045260245ffd5b5f61051582610357565b915061052083610357565b9250828203905081811115610538576105376104de565b5b92915050565b5f61054882610357565b915061055383610357565b925082820190508082111561056b5761056a6104de565b5b9291505056fea26469706673582212207514ae76c032b797b29b5bd34b612e1f56b5e6c17098f6ba9124a79cbb36fd1564736f6c63430008210033","linkReferences":{}},"methodIdentifiers":{"balances(address)":"27e235e3","compound()":"f69e2046","deposit()":"d0e30db0","getBalance()":"12065fe0","withdraw(uint256)":"2e1a7d4d"},"id":19}